{
  "contractName": "MyCV",
  "abi": [
    {
      "constant": false,
      "inputs": [],
      "name": "kill",
      "outputs": [],
      "payable": false,
      "stateMutability": "nonpayable",
      "type": "function"
    },
    {
      "constant": true,
      "inputs": [],
      "name": "elementsAreSet",
      "outputs": [
        {
          "name": "",
          "type": "bool"
        }
      ],
      "payable": false,
      "stateMutability": "view",
      "type": "function"
    },
    {
      "constant": true,
      "inputs": [],
      "name": "owner",
      "outputs": [
        {
          "name": "",
          "type": "address"
        }
      ],
      "payable": false,
      "stateMutability": "view",
      "type": "function"
    },
    {
      "constant": true,
      "inputs": [],
      "name": "basicInfo",
      "outputs": [
        {
          "name": "_name",
          "type": "string"
        },
        {
          "name": "_label",
          "type": "string"
        },
        {
          "name": "_email",
          "type": "string"
        },
        {
          "name": "_phone",
          "type": "string"
        },
        {
          "name": "_website",
          "type": "string"
        },
        {
          "name": "_summary",
          "type": "string"
        }
      ],
      "payable": false,
      "stateMutability": "view",
      "type": "function"
    },
    {
      "inputs": [],
      "payable": false,
      "stateMutability": "nonpayable",
      "type": "constructor"
    },
    {
      "anonymous": false,
      "inputs": [
        {
          "indexed": false,
          "name": "_name",
          "type": "string"
        },
        {
          "indexed": false,
          "name": "_label",
          "type": "string"
        },
        {
          "indexed": false,
          "name": "_email",
          "type": "string"
        },
        {
          "indexed": false,
          "name": "_phone",
          "type": "string"
        },
        {
          "indexed": false,
          "name": "_website",
          "type": "string"
        },
        {
          "indexed": false,
          "name": "_summary",
          "type": "string"
        }
      ],
      "name": "basicInfoSet",
      "type": "event"
    },
    {
      "constant": false,
      "inputs": [
        {
          "name": "_period",
          "type": "string"
        },
        {
          "name": "_title",
          "type": "string"
        },
        {
          "name": "_description",
          "type": "string"
        }
      ],
      "name": "addExperience",
      "outputs": [
        {
          "name": "",
          "type": "uint256"
        }
      ],
      "payable": false,
      "stateMutability": "nonpayable",
      "type": "function"
    },
    {
      "constant": false,
      "inputs": [
        {
          "name": "_name",
          "type": "string"
        },
        {
          "name": "_label",
          "type": "string"
        },
        {
          "name": "_email",
          "type": "string"
        },
        {
          "name": "_phone",
          "type": "string"
        },
        {
          "name": "_website",
          "type": "string"
        },
        {
          "name": "_summary",
          "type": "string"
        }
      ],
      "name": "setBasicInfo",
      "outputs": [],
      "payable": false,
      "stateMutability": "nonpayable",
      "type": "function"
    },
    {
      "constant": true,
      "inputs": [],
      "name": "getTitle",
      "outputs": [
        {
          "name": "",
          "type": "string"
        }
      ],
      "payable": false,
      "stateMutability": "view",
      "type": "function"
    },
    {
      "constant": true,
      "inputs": [],
      "name": "getDescription",
      "outputs": [
        {
          "name": "",
          "type": "string"
        }
      ],
      "payable": false,
      "stateMutability": "view",
      "type": "function"
    },
    {
      "constant": true,
      "inputs": [],
      "name": "getAuthor",
      "outputs": [
        {
          "name": "",
          "type": "string"
        },
        {
          "name": "",
          "type": "string"
        }
      ],
      "payable": false,
      "stateMutability": "view",
      "type": "function"
    },
    {
      "constant": true,
      "inputs": [],
      "name": "getAddress",
      "outputs": [
        {
          "name": "",
          "type": "string"
        }
      ],
      "payable": false,
      "stateMutability": "view",
      "type": "function"
    }
  ],
  "bytecode": "0x606060405234156200001057600080fd5b336000806101000a81548173ffffffffffffffffffffffffffffffffffffffff021916908373ffffffffffffffffffffffffffffffffffffffff160217905550620002256040805190810160405280600c81526020017f4a756e6169642041686d656400000000000000000000000000000000000000008152506040805190810160405280601181526020017f536f66747761726520456e67696e6565720000000000000000000000000000008152506040805190810160405280600f81526020017f6a756e613164406c6976652e636f6d00000000000000000000000000000000008152506040805190810160405280600e81526020017f2b393120393634323038343732340000000000000000000000000000000000008152506040805190810160405280600f81526020017f6a756e7a792e6769746875622e696f000000000000000000000000000000000081525060a060405190810160405280606b81526020017f496e746572657374656420696e20646966666572656e7420706c6174666f726d81526020017f7320616e6420746f6f6c7320746f206275696c6420736f66747761726520666f81526020017f7220736f6c76696e67206578636974696e672070726f626c656d73206174206781526020017f72656174207363616c652e0000000000000000000000000000000000000000008152506200022b6401000000000262000eff176401000000009004565b620006fa565b6000809054906101000a900473ffffffffffffffffffffffffffffffffffffffff1673ffffffffffffffffffffffffffffffffffffffff163373ffffffffffffffffffffffffffffffffffffffff161415156200028757600080fd5b60c0604051908101604052808781526020018681526020018581526020018481526020018381526020018281525060026000820151816000019080519060200190620002d59291906200064b565b506020820151816001019080519060200190620002f49291906200064b565b506040820151816002019080519060200190620003139291906200064b565b506060820151816003019080519060200190620003329291906200064b565b506080820151816004019080519060200190620003519291906200064b565b5060a0820151816005019080519060200190620003709291906200064b565b509050507f5a34c83b1bdab1e5b473abc44fe8cea3754e943c69c941da3476f97d531bc9028686868686866040518080602001806020018060200180602001806020018060200187810387528d818151815260200191508051906020019080838360005b83811015620003f1578082015181840152602081019050620003d4565b50505050905090810190601f1680156200041f5780820380516001836020036101000a031916815260200191505b5087810386528c818151815260200191508051906020019080838360005b838110156200045a5780820151818401526020810190506200043d565b50505050905090810190601f168015620004885780820380516001836020036101000a031916815260200191505b5087810385528b818151815260200191508051906020019080838360005b83811015620004c3578082015181840152602081019050620004a6565b50505050905090810190601f168015620004f15780820380516001836020036101000a031916815260200191505b5087810384528a818151815260200191508051906020019080838360005b838110156200052c5780820151818401526020810190506200050f565b50505050905090810190601f1680156200055a5780820380516001836020036101000a031916815260200191505b50878103835289818151815260200191508051906020019080838360005b838110156200059557808201518184015260208101905062000578565b50505050905090810190601f168015620005c35780820380516001836020036101000a031916815260200191505b50878103825288818151815260200191508051906020019080838360005b83811015620005fe578082015181840152602081019050620005e1565b50505050905090810190601f1680156200062c5780820380516001836020036101000a031916815260200191505b509c5050505050505050505050505060405180910390a1505050505050565b828054600181600116156101000203166002900490600052602060002090601f016020900481019282601f106200068e57805160ff1916838001178555620006bf565b82800160010185558215620006bf579182015b82811115620006be578251825591602001919060010190620006a1565b5b509050620006ce9190620006d2565b5090565b620006f791905b80821115620006f3576000816000905550600101620006d9565b5090565b90565b6114c8806200070a6000396000f3006060604052600436106100a4576000357c0100000000000000000000000000000000000000000000000000000000900463ffffffff1680631a092541146100a957806338cc48311461013757806341c0e1b5146101c557806343863437146101da5780637e9aef53146102d15780638da5cb5b146102fe578063a5faa12514610353578063aedaf9d11461044d578063ee0a3951146105f9578063ff3c1a8f14610951575b600080fd5b34156100b457600080fd5b6100bc6109df565b6040518080602001828103825283818151815260200191508051906020019080838360005b838110156100fc5780820151818401526020810190506100e1565b50505050905090810190601f1680156101295780820380516001836020036101000a031916815260200191505b509250505060405180910390f35b341561014257600080fd5b61014a610a8a565b6040518080602001828103825283818151815260200191508051906020019080838360005b8381101561018a57808201518184015260208101905061016f565b50505050905090810190601f1680156101b75780820380516001836020036101000a031916815260200191505b509250505060405180910390f35b34156101d057600080fd5b6101d8610b35565b005b34156101e557600080fd5b6102bb600480803590602001908201803590602001908080601f0160208091040260200160405190810160405280939291908181526020018383808284378201915050505050509190803590602001908201803590602001908080601f0160208091040260200160405190810160405280939291908181526020018383808284378201915050505050509190803590602001908201803590602001908080601f01602080910402602001604051908101604052809392919081815260200183838082843782019150505050505091905050610bc6565b6040518082815260200191505060405180910390f35b34156102dc57600080fd5b6102e4610ccc565b604051808215151515815260200191505060405180910390f35b341561030957600080fd5b610311610d80565b604051808273ffffffffffffffffffffffffffffffffffffffff1673ffffffffffffffffffffffffffffffffffffffff16815260200191505060405180910390f35b341561035e57600080fd5b610366610da6565b604051808060200180602001838103835285818151815260200191508051906020019080838360005b838110156103aa57808201518184015260208101905061038f565b50505050905090810190601f1680156103d75780820380516001836020036101000a031916815260200191505b50838103825284818151815260200191508051906020019080838360005b838110156104105780820151818401526020810190506103f5565b50505050905090810190601f16801561043d5780820380516001836020036101000a031916815260200191505b5094505050505060405180910390f35b341561045857600080fd5b6105f7600480803590602001908201803590602001908080601f0160208091040260200160405190810160405280939291908181526020018383808284378201915050505050509190803590602001908201803590602001908080601f0160208091040260200160405190810160405280939291908181526020018383808284378201915050505050509190803590602001908201803590602001908080601f0160208091040260200160405190810160405280939291908181526020018383808284378201915050505050509190803590602001908201803590602001908080601f0160208091040260200160405190810160405280939291908181526020018383808284378201915050505050509190803590602001908201803590602001908080601f0160208091040260200160405190810160405280939291908181526020018383808284378201915050505050509190803590602001908201803590602001908080601f01602080910402602001604051908101604052809392919081815260200183838082843782019150505050505091905050610eff565b005b341561060457600080fd5b61060c611300565b6040518080602001806020018060200180602001806020018060200187810387528d8181546001816001161561010002031660029004815260200191508054600181600116156101000203166002900480156106a95780601f1061067e576101008083540402835291602001916106a9565b820191906000526020600020905b81548152906001019060200180831161068c57829003601f168201915b505087810386528c81815460018160011615610100020316600290048152602001915080546001816001161561010002031660029004801561072c5780601f106107015761010080835404028352916020019161072c565b820191906000526020600020905b81548152906001019060200180831161070f57829003601f168201915b505087810385528b8181546001816001161561010002031660029004815260200191508054600181600116156101000203166002900480156107af5780601f10610784576101008083540402835291602001916107af565b820191906000526020600020905b81548152906001019060200180831161079257829003601f168201915b505087810384528a8181546001816001161561010002031660029004815260200191508054600181600116156101000203166002900480156108325780601f1061080757610100808354040283529160200191610832565b820191906000526020600020905b81548152906001019060200180831161081557829003601f168201915b50508781038352898181546001816001161561010002031660029004815260200191508054600181600116156101000203166002900480156108b55780601f1061088a576101008083540402835291602001916108b5565b820191906000526020600020905b81548152906001019060200180831161089857829003601f168201915b50508781038252888181546001816001161561010002031660029004815260200191508054600181600116156101000203166002900480156109385780601f1061090d57610100808354040283529160200191610938565b820191906000526020600020905b81548152906001019060200180831161091b57829003601f168201915b50509c5050505050505050505050505060405180910390f35b341561095c57600080fd5b610964611324565b6040518080602001828103825283818151815260200191508051906020019080838360005b838110156109a4578082015181840152602081019050610989565b50505050905090810190601f1680156109d15780820380516001836020036101000a031916815260200191505b509250505060405180910390f35b6109e76113cf565b60026005018054600181600116156101000203166002900480601f016020809104026020016040519081016040528092919081815260200182805460018160011615610100020316600290048015610a805780601f10610a5557610100808354040283529160200191610a80565b820191906000526020600020905b815481529060010190602001808311610a6357829003601f168201915b5050505050905090565b610a926113cf565b60026004018054600181600116156101000203166002900480601f016020809104026020016040519081016040528092919081815260200182805460018160011615610100020316600290048015610b2b5780601f10610b0057610100808354040283529160200191610b2b565b820191906000526020600020905b815481529060010190602001808311610b0e57829003601f168201915b5050505050905090565b6000809054906101000a900473ffffffffffffffffffffffffffffffffffffffff1673ffffffffffffffffffffffffffffffffffffffff163373ffffffffffffffffffffffffffffffffffffffff161415610bc4576000809054906101000a900473ffffffffffffffffffffffffffffffffffffffff1673ffffffffffffffffffffffffffffffffffffffff16ff5b565b60008060009054906101000a900473ffffffffffffffffffffffffffffffffffffffff1673ffffffffffffffffffffffffffffffffffffffff163373ffffffffffffffffffffffffffffffffffffffff16141515610c2357600080fd5b600960008154809291906001019190505550606060405190810160405280858152602001848152602001838152506008600060095481526020019081526020016000206000820151816000019080519060200190610c829291906113e3565b506020820151816001019080519060200190610c9f9291906113e3565b506040820151816002019080519060200190610cbc9291906113e3565b5090505060095490509392505050565b6000610cd6611463565b610cde6113cf565b610ce66113cf565b610cee6109df565b9250600083511415610d035760009350610d7a565b610d0b611324565b9250600083511415610d205760009350610d7a565b610d28610da6565b91509150819250600083511415610d425760009350610d7a565b809250600083511415610d585760009350610d7a565b610d60610a8a565b9250600083511415610d755760009350610d7a565b600193505b50505090565b600160009054906101000a900473ffffffffffffffffffffffffffffffffffffffff1681565b610dae6113cf565b610db66113cf565b600260000160028001818054600181600116156101000203166002900480601f016020809104026020016040519081016040528092919081815260200182805460018160011615610100020316600290048015610e545780601f10610e2957610100808354040283529160200191610e54565b820191906000526020600020905b815481529060010190602001808311610e3757829003601f168201915b50505050509150808054600181600116156101000203166002900480601f016020809104026020016040519081016040528092919081815260200182805460018160011615610100020316600290048015610ef05780601f10610ec557610100808354040283529160200191610ef0565b820191906000526020600020905b815481529060010190602001808311610ed357829003601f168201915b50505050509050915091509091565b6000809054906101000a900473ffffffffffffffffffffffffffffffffffffffff1673ffffffffffffffffffffffffffffffffffffffff163373ffffffffffffffffffffffffffffffffffffffff16141515610f5a57600080fd5b60c0604051908101604052808781526020018681526020018581526020018481526020018381526020018281525060026000820151816000019080519060200190610fa69291906113e3565b506020820151816001019080519060200190610fc39291906113e3565b506040820151816002019080519060200190610fe09291906113e3565b506060820151816003019080519060200190610ffd9291906113e3565b50608082015181600401908051906020019061101a9291906113e3565b5060a08201518160050190805190602001906110379291906113e3565b509050507f5a34c83b1bdab1e5b473abc44fe8cea3754e943c69c941da3476f97d531bc9028686868686866040518080602001806020018060200180602001806020018060200187810387528d818151815260200191508051906020019080838360005b838110156110b657808201518184015260208101905061109b565b50505050905090810190601f1680156110e35780820380516001836020036101000a031916815260200191505b5087810386528c818151815260200191508051906020019080838360005b8381101561111c578082015181840152602081019050611101565b50505050905090810190601f1680156111495780820380516001836020036101000a031916815260200191505b5087810385528b818151815260200191508051906020019080838360005b83811015611182578082015181840152602081019050611167565b50505050905090810190601f1680156111af5780820380516001836020036101000a031916815260200191505b5087810384528a818151815260200191508051906020019080838360005b838110156111e85780820151818401526020810190506111cd565b50505050905090810190601f1680156112155780820380516001836020036101000a031916815260200191505b50878103835289818151815260200191508051906020019080838360005b8381101561124e578082015181840152602081019050611233565b50505050905090810190601f16801561127b5780820380516001836020036101000a031916815260200191505b50878103825288818151815260200191508051906020019080838360005b838110156112b4578082015181840152602081019050611299565b50505050905090810190601f1680156112e15780820380516001836020036101000a031916815260200191505b509c5050505050505050505050505060405180910390a1505050505050565b60028060000190806001019080600201908060030190806004019080600501905086565b61132c6113cf565b60026001018054600181600116156101000203166002900480601f0160208091040260200160405190810160405280929190818152602001828054600181600116156101000203166002900480156113c55780601f1061139a576101008083540402835291602001916113c5565b820191906000526020600020905b8154815290600101906020018083116113a857829003601f168201915b5050505050905090565b602060405190810160405280600081525090565b828054600181600116156101000203166002900490600052602060002090601f016020900481019282601f1061142457805160ff1916838001178555611452565b82800160010185558215611452579182015b82811115611451578251825591602001919060010190611436565b5b50905061145f9190611477565b5090565b602060405190810160405280600081525090565b61149991905b8082111561149557600081600090555060010161147d565b5090565b905600a165627a7a72305820dde2e54c5d0b249863eb52237a306ef18c2cde0824ac59fd0049e41fa1b929a00029",
  "source": "pragma solidity ^0.4.17;\n\nimport \"./mortal.sol\";\nimport \"./CVExtender.sol\";\n\ncontract MyCV is mortal, CVExtender{\n\taddress public owner;\n\n\tstruct BasicInfo {\n        string _name;           /// Name; First & Last\n        string _label;          /// Job Title \n        string _email;          /// Email Address\n        string _phone;          /// Phone Number\n        string _website;        /// Website URL\n        string _summary;        /// Executive Summary\n    }\n\n    struct Experience {\n    \tstring _period; \t\t// Time period during which experience was attained\n    \tstring _title;\t\t\t// Role title\n    \tstring _description;\t// Role description\n    }\n\n    BasicInfo public basicInfo; \t\t// Basic Info object \n    mapping(uint => Experience) m_experiences;\t\t\t// List of experiences\n    uint experience_counter;\t\t// Experience List counter\n\n\n    event basicInfoSet(string _name, string _label, \n    string _email, string _phone, string _website, string _summary);\n\n    function MyCV () {    \t\n    setBasicInfo(\"Junaid Ahmed\", \"Software Engineer\", \n\t\t\"juna1d@live.com\", \"+91 9642084724\", \"junzy.github.io\",\n\t\t\"Interested in different platforms and tools to build software for solving exciting problems at great scale.\");\n    }\n\n    function addExperience(string _period, string _title, string _description)  public onlyowner returns (uint) {\n    \texperience_counter++;\n        m_experiences[experience_counter] = Experience(_period, _title, _description);\n        // proposalReceived(msg.sender, _to, _reason, proposal_counter);\n        return experience_counter;\n    }\n    \n\tfunction setBasicInfo (string _name, string _label, \n\t\tstring _email, string _phone, string _website, string _summary) public onlyowner {\n\t\tbasicInfo = BasicInfo(_name, _label, _email, _phone, _website, _summary);\n\t\tbasicInfoSet(_name, _label, _email, _phone, _website, _summary);\n\t}\n\n\n\tfunction getTitle() constant public returns (string) {\n\t\treturn basicInfo._label;\n\t}\n\n\tfunction getDescription() constant public returns (string) {\n\t\treturn basicInfo._summary;\n\t}\n\n\tfunction getAuthor() constant public returns (string, string) {\n\t\treturn (basicInfo._name, basicInfo._email);\n\t}\n\n\tfunction getAddress() constant public returns (string) {\n\t\treturn basicInfo._website;\n\t}\n\n}",
  "sourcePath": "/Users/junzy/Documents/Ethereum/test-dapp/cv-dapp/contracts/MyCV.sol",
  "compiler": {
    "name": "solc",
    "version": "0.4.19+commit.c4cbbb05.Emscripten.clang"
  },
  "schemaVersion": "1.0.1",
  "updatedAt": "2018-03-04T08:56:29.464Z"
}