{
  "contractName": "MyWallet",
  "abi": [
    {
      "constant": false,
      "inputs": [],
      "name": "kill",
      "outputs": [],
      "payable": false,
      "stateMutability": "nonpayable",
      "type": "function"
    },
    {
      "payable": true,
      "stateMutability": "payable",
      "type": "fallback"
    },
    {
      "anonymous": false,
      "inputs": [
        {
          "indexed": false,
          "name": "_from",
          "type": "address"
        },
        {
          "indexed": false,
          "name": "_amount",
          "type": "uint256"
        }
      ],
      "name": "receivedFunds",
      "type": "event"
    },
    {
      "anonymous": false,
      "inputs": [
        {
          "indexed": true,
          "name": "_from",
          "type": "address"
        },
        {
          "indexed": true,
          "name": "_to",
          "type": "address"
        },
        {
          "indexed": false,
          "name": "_reason",
          "type": "string"
        },
        {
          "indexed": false,
          "name": "proposal_id",
          "type": "uint256"
        }
      ],
      "name": "proposalReceived",
      "type": "event"
    },
    {
      "anonymous": false,
      "inputs": [
        {
          "indexed": false,
          "name": "_from",
          "type": "address"
        },
        {
          "indexed": false,
          "name": "_to",
          "type": "address"
        }
      ],
      "name": "sendMoneyPlain",
      "type": "event"
    },
    {
      "constant": false,
      "inputs": [
        {
          "name": "_to",
          "type": "address"
        },
        {
          "name": "_value",
          "type": "uint256"
        },
        {
          "name": "_reason",
          "type": "string"
        }
      ],
      "name": "spendMoneyOn",
      "outputs": [
        {
          "name": "",
          "type": "uint256"
        }
      ],
      "payable": false,
      "stateMutability": "nonpayable",
      "type": "function"
    },
    {
      "constant": false,
      "inputs": [
        {
          "name": "proposal_id",
          "type": "uint256"
        }
      ],
      "name": "confirmProposal",
      "outputs": [
        {
          "name": "",
          "type": "bool"
        }
      ],
      "payable": false,
      "stateMutability": "nonpayable",
      "type": "function"
    }
  ],
  "bytecode": "0x6060604052336000806101000a81548173ffffffffffffffffffffffffffffffffffffffff021916908373ffffffffffffffffffffffffffffffffffffffff160217905550610851806100536000396000f300606060405260043610610057576000357c0100000000000000000000000000000000000000000000000000000000900463ffffffff168063192997e7146100ce57806341c0e1b514610167578063f4a4f4d21461017c575b60003411156100cc577f3f638da77ee3d49db2211092b965c9c7c2fcb68fea5e8f85986200f8776f6a1d3334604051808373ffffffffffffffffffffffffffffffffffffffff1673ffffffffffffffffffffffffffffffffffffffff1681526020018281526020019250505060405180910390a15b005b34156100d957600080fd5b610151600480803573ffffffffffffffffffffffffffffffffffffffff1690602001909190803590602001909190803590602001908201803590602001908080601f016020809104026020016040519081016040528093929190818152602001838380828437820191505050505050919050506101b7565b6040518082815260200191505060405180910390f35b341561017257600080fd5b61017a610526565b005b341561018757600080fd5b61019d60048080359060200190919050506105b7565b604051808215151515815260200191505060405180910390f35b60003373ffffffffffffffffffffffffffffffffffffffff166000809054906101000a900473ffffffffffffffffffffffffffffffffffffffff1673ffffffffffffffffffffffffffffffffffffffff1614156102ea578373ffffffffffffffffffffffffffffffffffffffff166108fc849081150290604051600060405180830381858888f19350505050151561024e57600080fd5b7f44f9cec4190ec013b3b048b609ddf6b119bfa55c3a6e0deb6f0b1eccb93b612b3385604051808373ffffffffffffffffffffffffffffffffffffffff1673ffffffffffffffffffffffffffffffffffffffff1681526020018273ffffffffffffffffffffffffffffffffffffffff1673ffffffffffffffffffffffffffffffffffffffff1681526020019250505060405180910390a161051e565b60016000815480929190600101919050555060a0604051908101604052803373ffffffffffffffffffffffffffffffffffffffff1681526020018573ffffffffffffffffffffffffffffffffffffffff1681526020018481526020018381526020016000151581525060026000600154815260200190815260200160002060008201518160000160006101000a81548173ffffffffffffffffffffffffffffffffffffffff021916908373ffffffffffffffffffffffffffffffffffffffff16021790555060208201518160010160006101000a81548173ffffffffffffffffffffffffffffffffffffffff021916908373ffffffffffffffffffffffffffffffffffffffff16021790555060408201518160020155606082015181600301908051906020019061041c929190610780565b5060808201518160040160006101000a81548160ff0219169083151502179055509050508373ffffffffffffffffffffffffffffffffffffffff163373ffffffffffffffffffffffffffffffffffffffff167f492e103af6f9230a4390ccafe2c1781adba1b6ff6b665ab8aed3151cd2d0d1eb846001546040518080602001838152602001828103825284818151815260200191508051906020019080838360005b838110156104d95780820151818401526020810190506104be565b50505050905090810190601f1680156105065780820380516001836020036101000a031916815260200191505b50935050505060405180910390a3600154905061051f565b5b9392505050565b6000809054906101000a900473ffffffffffffffffffffffffffffffffffffffff1673ffffffffffffffffffffffffffffffffffffffff163373ffffffffffffffffffffffffffffffffffffffff1614156105b5576000809054906101000a900473ffffffffffffffffffffffffffffffffffffffff1673ffffffffffffffffffffffffffffffffffffffff16ff5b565b60008060009054906101000a900473ffffffffffffffffffffffffffffffffffffffff1673ffffffffffffffffffffffffffffffffffffffff163373ffffffffffffffffffffffffffffffffffffffff1614151561061457600080fd5b600073ffffffffffffffffffffffffffffffffffffffff166002600084815260200190815260200160002060000160009054906101000a900473ffffffffffffffffffffffffffffffffffffffff1673ffffffffffffffffffffffffffffffffffffffff1614151561077657600115156002600084815260200190815260200160002060040160009054906101000a900460ff1615151415156107755760016002600084815260200190815260200160002060040160006101000a81548160ff0219169083151502179055506002600083815260200190815260200160002060010160009054906101000a900473ffffffffffffffffffffffffffffffffffffffff1673ffffffffffffffffffffffffffffffffffffffff166108fc60026000858152602001908152602001600020600201549081150290604051600060405180830381858888f19350505050151561076c57600080fd5b6001905061077b565b5b600090505b919050565b828054600181600116156101000203166002900490600052602060002090601f016020900481019282601f106107c157805160ff19168380011785556107ef565b828001600101855582156107ef579182015b828111156107ee5782518255916020019190600101906107d3565b5b5090506107fc9190610800565b5090565b61082291905b8082111561081e576000816000905550600101610806565b5090565b905600a165627a7a72305820c1d395c5f1263e57986024062c0079770a947004b013ea31183abb5f98da97e80029",
  "source": "pragma solidity ^0.4.15;\r\n\r\nimport \"./mortal.sol\";\r\n\r\n\r\ncontract MyWallet is mortal {\r\n    event receivedFunds(address _from, uint256 _amount);\r\n\r\n    /**\r\n     * Edit Oct 2017:\r\n     * Added the proposal_id as it leaded to a lot of confusion how to get the actual id in \"confirmProposal\"\r\n     **/\r\n    event proposalReceived(address indexed _from, address indexed _to, string _reason, uint256 proposal_id);\r\n    event sendMoneyPlain(address _from, address _to);\r\n\r\n    struct Proposal {\r\n    address _from;\r\n    address _to;\r\n    uint256 _value;\r\n    string _reason;\r\n    bool sent;\r\n    }\r\n\r\n    uint proposal_counter;\r\n\r\n    mapping(uint => Proposal) m_proposals;\r\n\r\n    function spendMoneyOn(address _to, uint256 _value, string _reason) public returns (uint256) {\r\n        if(owner == msg.sender) {\r\n            /**\r\n             * Update From Solidtiy 0.4.13, where .transfer was introduced!\r\n             * Checkout https://vomtom.at/exception-handling-in-solidity/\r\n             * .send() as shown in the video is depricated.\r\n             **/\r\n            _to.transfer(_value);\r\n            sendMoneyPlain(msg.sender, _to);\r\n        } else {\r\n            proposal_counter++;\r\n            m_proposals[proposal_counter] = Proposal(msg.sender, _to, _value, _reason, false);\r\n            proposalReceived(msg.sender, _to, _reason, proposal_counter);\r\n            return proposal_counter;\r\n        }\r\n    }\r\n\r\n    function confirmProposal(uint proposal_id) public onlyowner returns (bool) {\r\n        if(m_proposals[proposal_id]._from != address(0)) {\r\n            if(m_proposals[proposal_id].sent != true) {\r\n                m_proposals[proposal_id].sent = true;\r\n                m_proposals[proposal_id]._to.transfer(m_proposals[proposal_id]._value);\r\n                return true;\r\n            }\r\n        }\r\n        return false;\r\n    }\r\n\r\n    function() payable public {\r\n        if(msg.value > 0) {\r\n            receivedFunds(msg.sender, msg.value);\r\n        }\r\n    }\r\n}",
  "sourcePath": "C:\\Users\\junzy\\Documents\\Ethereum\\Projects\\truffle-init\\contracts\\MyWallet.sol",
  "compiler": {
    "name": "solc",
    "version": "0.4.19+commit.c4cbbb05.Emscripten.clang"
  },
  "schemaVersion": "1.0.1",
  "updatedAt": "2018-02-25T10:40:23.112Z"
}